{
  "contractName": "GenericERC20Vesting",
  "abi": [
    {
      "inputs": [
        {
          "internalType": "address",
          "name": "genericERC20Address",
          "type": "address"
        }
      ],
      "stateMutability": "nonpayable",
      "type": "constructor"
    },
    {
      "anonymous": false,
      "inputs": [
        {
          "indexed": true,
          "internalType": "address",
          "name": "user",
          "type": "address"
        },
        {
          "indexed": false,
          "internalType": "uint256",
          "name": "amount",
          "type": "uint256"
        }
      ],
      "name": "Deposit",
      "type": "event"
    },
    {
      "anonymous": false,
      "inputs": [
        {
          "indexed": true,
          "internalType": "address",
          "name": "user",
          "type": "address"
        },
        {
          "indexed": false,
          "internalType": "uint256",
          "name": "amount",
          "type": "uint256"
        }
      ],
      "name": "Withdraw",
      "type": "event"
    },
    {
      "inputs": [],
      "name": "GE20",
      "outputs": [
        {
          "internalType": "address",
          "name": "",
          "type": "address"
        }
      ],
      "stateMutability": "view",
      "type": "function",
      "constant": true
    },
    {
      "inputs": [
        {
          "internalType": "address",
          "name": "",
          "type": "address"
        }
      ],
      "name": "userInfo",
      "outputs": [
        {
          "internalType": "uint256",
          "name": "amountVested",
          "type": "uint256"
        },
        {
          "internalType": "uint256",
          "name": "dateVestEnds",
          "type": "uint256"
        },
        {
          "internalType": "bool",
          "name": "exists",
          "type": "bool"
        }
      ],
      "stateMutability": "view",
      "type": "function",
      "constant": true
    },
    {
      "inputs": [],
      "name": "getTotalVest",
      "outputs": [
        {
          "internalType": "uint256",
          "name": "",
          "type": "uint256"
        }
      ],
      "stateMutability": "view",
      "type": "function",
      "constant": true
    },
    {
      "inputs": [],
      "name": "getVesters",
      "outputs": [
        {
          "internalType": "uint256",
          "name": "",
          "type": "uint256"
        },
        {
          "internalType": "address[]",
          "name": "",
          "type": "address[]"
        },
        {
          "internalType": "uint256[]",
          "name": "",
          "type": "uint256[]"
        }
      ],
      "stateMutability": "view",
      "type": "function",
      "constant": true
    },
    {
      "inputs": [
        {
          "internalType": "uint256",
          "name": "vestAmount",
          "type": "uint256"
        },
        {
          "internalType": "uint256",
          "name": "expirationDate",
          "type": "uint256"
        }
      ],
      "name": "despositVest",
      "outputs": [
        {
          "internalType": "uint256",
          "name": "",
          "type": "uint256"
        },
        {
          "internalType": "uint256",
          "name": "",
          "type": "uint256"
        }
      ],
      "stateMutability": "nonpayable",
      "type": "function"
    },
    {
      "inputs": [
        {
          "internalType": "uint256",
          "name": "amount",
          "type": "uint256"
        }
      ],
      "name": "removeVest",
      "outputs": [
        {
          "internalType": "uint256",
          "name": "",
          "type": "uint256"
        },
        {
          "internalType": "uint256",
          "name": "",
          "type": "uint256"
        }
      ],
      "stateMutability": "nonpayable",
      "type": "function"
    }
  ],
  "bytecode": "0x608060405234801561001057600080fd5b5060405161150e38038061150e8339818101604052602081101561003357600080fd5b8101908080519060200190929190505050600160008190555080600260006101000a81548173ffffffffffffffffffffffffffffffffffffffff021916908373ffffffffffffffffffffffffffffffffffffffff160217905550506114718061009d6000396000f3fe608060405234801561001057600080fd5b50600436106100625760003560e01c806305933544146100675780631959a002146100855780632a46f88e146100ed57806373f21c80146101365780637e0c51e8146101e4578063dfb2c1a114610218575b600080fd5b61006f61026b565b6040518082815260200191505060405180910390f35b6100c76004803603602081101561009b57600080fd5b81019080803573ffffffffffffffffffffffffffffffffffffffff169060200190929190505050610275565b604051808481526020018381526020018215158152602001935050505060405180910390f35b6101196004803603602081101561010357600080fd5b81019080803590602001909291905050506102ac565b604051808381526020018281526020019250505060405180910390f35b61013e610781565b604051808481526020018060200180602001838103835285818151815260200191508051906020019060200280838360005b8381101561018b578082015181840152602081019050610170565b50505050905001838103825284818151815260200191508051906020019060200280838360005b838110156101cd5780820151818401526020810190506101b2565b505050509050019550505050505060405180910390f35b6101ec610966565b604051808273ffffffffffffffffffffffffffffffffffffffff16815260200191505060405180910390f35b61024e6004803603604081101561022e57600080fd5b81019080803590602001909291908035906020019092919050505061098c565b604051808381526020018281526020019250505060405180910390f35b6000600454905090565b60016020528060005260406000206000915090508060000154908060010154908060020160009054906101000a900460ff16905083565b60008060026000541415610328576040517f08c379a000000000000000000000000000000000000000000000000000000000815260040180806020018281038252601f8152602001807f5265656e7472616e637947756172643a207265656e7472616e742063616c6c0081525060200191505060405180910390fd5b6002600081905550600083116103a6576040517f08c379a000000000000000000000000000000000000000000000000000000000815260040180806020018281038252601e8152602001807f63616e6e6f7420756e76657374206e6567617469766520616d6f756e7473000081525060200191505060405180910390fd5b6000600160003373ffffffffffffffffffffffffffffffffffffffff1673ffffffffffffffffffffffffffffffffffffffff168152602001908152602001600020905042816001015410610445576040517f08c379a000000000000000000000000000000000000000000000000000000000815260040180806020018281038252602c8152602001806113ee602c913960400191505060405180910390fd5b80600001548411156104bf576040517f08c379a000000000000000000000000000000000000000000000000000000000815260040180806020018281038252601e8152602001807f63616e6e6f7420756e76657374206d6f7265207468616e20766573746564000081525060200191505060405180910390fd5b6104d6848260000154610ff890919063ffffffff16565b8160000181905550600260009054906101000a900473ffffffffffffffffffffffffffffffffffffffff1673ffffffffffffffffffffffffffffffffffffffff1663a9059cbb33866040518363ffffffff1660e01b8152600401808373ffffffffffffffffffffffffffffffffffffffff16815260200182815260200192505050602060405180830381600087803b15801561057157600080fd5b505af1158015610585573d6000803e3d6000fd5b505050506040513d602081101561059b57600080fd5b810190808051906020019092919050505061061e576040517f08c379a000000000000000000000000000000000000000000000000000000000815260040180806020018281038252601e8152602001807f7472616e7366657220746f6b656e206f7574206f6620636f6e7472616374000081525060200191505060405180910390fd5b8060020160009054906101000a900460ff168015610640575060008160000154145b1561064f5761064e3361107b565b5b600260009054906101000a900473ffffffffffffffffffffffffffffffffffffffff1673ffffffffffffffffffffffffffffffffffffffff166370a08231306040518263ffffffff1660e01b8152600401808273ffffffffffffffffffffffffffffffffffffffff16815260200191505060206040518083038186803b1580156106d857600080fd5b505afa1580156106ec573d6000803e3d6000fd5b505050506040513d602081101561070257600080fd5b81019080805190602001909291905050506004819055503373ffffffffffffffffffffffffffffffffffffffff167f884edad9ce6fa2440d8a54cc123490eb96d2768479d49ff9c7366125a9424364856040518082815260200191505060405180910390a2806000015460045492509250506001600081905550915091565b6000606080600060038054905067ffffffffffffffff811180156107a457600080fd5b506040519080825280602002602001820160405280156107d35781602001602082028036833780820191505090505b509050600060038054905067ffffffffffffffff811180156107f457600080fd5b506040519080825280602002602001820160405280156108235781602001602082028036833780820191505090505b50905060005b600380549050811015610953576003818154811061084357fe5b9060005260206000200160009054906101000a900473ffffffffffffffffffffffffffffffffffffffff1683828151811061087a57fe5b602002602001019073ffffffffffffffffffffffffffffffffffffffff16908173ffffffffffffffffffffffffffffffffffffffff168152505060016000600383815481106108c557fe5b9060005260206000200160009054906101000a900473ffffffffffffffffffffffffffffffffffffffff1673ffffffffffffffffffffffffffffffffffffffff1673ffffffffffffffffffffffffffffffffffffffff1681526020019081526020016000206000015482828151811061093a57fe5b6020026020010181815250508080600101915050610829565b5060045482829450945094505050909192565b600260009054906101000a900473ffffffffffffffffffffffffffffffffffffffff1681565b60008060026000541415610a08576040517f08c379a000000000000000000000000000000000000000000000000000000000815260040180806020018281038252601f8152602001807f5265656e7472616e637947756172643a207265656e7472616e742063616c6c0081525060200191505060405180910390fd5b60026000819055506000600260009054906101000a900473ffffffffffffffffffffffffffffffffffffffff1673ffffffffffffffffffffffffffffffffffffffff166370a08231336040518263ffffffff1660e01b8152600401808273ffffffffffffffffffffffffffffffffffffffff16815260200191505060206040518083038186803b158015610a9b57600080fd5b505afa158015610aaf573d6000803e3d6000fd5b505050506040513d6020811015610ac557600080fd5b810190808051906020019092919050505011610b49576040517f08c379a000000000000000000000000000000000000000000000000000000000815260040180806020018281038252601a8152602001807f63616e6e6f74207665737420776974686f757420746f6b656e7300000000000081525060200191505060405180910390fd5b83600260009054906101000a900473ffffffffffffffffffffffffffffffffffffffff1673ffffffffffffffffffffffffffffffffffffffff166370a08231336040518263ffffffff1660e01b8152600401808273ffffffffffffffffffffffffffffffffffffffff16815260200191505060206040518083038186803b158015610bd357600080fd5b505afa158015610be7573d6000803e3d6000fd5b505050506040513d6020811015610bfd57600080fd5b810190808051906020019092919050505011610c81576040517f08c379a000000000000000000000000000000000000000000000000000000000815260040180806020018281038252601b8152602001807f63616e6e6f742076657374206d6f7265207468616e206f776e6564000000000081525060200191505060405180910390fd5b428311610cd9576040517f08c379a000000000000000000000000000000000000000000000000000000000815260040180806020018281038252602e8152602001806113c0602e913960400191505060405180910390fd5b600260009054906101000a900473ffffffffffffffffffffffffffffffffffffffff1673ffffffffffffffffffffffffffffffffffffffff166323b872dd3330876040518463ffffffff1660e01b8152600401808473ffffffffffffffffffffffffffffffffffffffff1681526020018373ffffffffffffffffffffffffffffffffffffffff1681526020018281526020019350505050602060405180830381600087803b158015610d8a57600080fd5b505af1158015610d9e573d6000803e3d6000fd5b505050506040513d6020811015610db457600080fd5b8101908080519060200190929190505050610e1a576040517f08c379a000000000000000000000000000000000000000000000000000000000815260040180806020018281038252602281526020018061141a6022913960400191505060405180910390fd5b6000600160003373ffffffffffffffffffffffffffffffffffffffff1673ffffffffffffffffffffffffffffffffffffffff16815260200190815260200160002090508381600101541015610e73578381600101819055505b8060020160009054906101000a900460ff16158015610e96575060008160000154145b15610ea557610ea4336111d2565b5b610ebc85826000015461129290919063ffffffff16565b8160000181905550600260009054906101000a900473ffffffffffffffffffffffffffffffffffffffff1673ffffffffffffffffffffffffffffffffffffffff166370a08231306040518263ffffffff1660e01b8152600401808273ffffffffffffffffffffffffffffffffffffffff16815260200191505060206040518083038186803b158015610f4d57600080fd5b505afa158015610f61573d6000803e3d6000fd5b505050506040513d6020811015610f7757600080fd5b81019080805190602001909291905050506004819055503373ffffffffffffffffffffffffffffffffffffffff167fe1fffcc4923d04b559f4d29a8bfc6cda04eb5b0d3c460751c2402c5c5cc9109c866040518082815260200191505060405180910390a28060000154600454925092505060016000819055509250929050565b600082821115611070576040517f08c379a000000000000000000000000000000000000000000000000000000000815260040180806020018281038252601e8152602001807f536166654d6174683a207375627472616374696f6e206f766572666c6f77000081525060200191505060405180910390fd5b818303905092915050565b6000806110878361131a565b9150915081156111cd57600160008473ffffffffffffffffffffffffffffffffffffffff1673ffffffffffffffffffffffffffffffffffffffff16815260200190815260200160002060008082016000905560018201600090556002820160006101000a81549060ff0219169055505060036001600380549050038154811061110c57fe5b9060005260206000200160009054906101000a900473ffffffffffffffffffffffffffffffffffffffff166003828154811061114457fe5b9060005260206000200160006101000a81548173ffffffffffffffffffffffffffffffffffffffff021916908373ffffffffffffffffffffffffffffffffffffffff160217905550600380548061119757fe5b6001900381819060005260206000200160006101000a81549073ffffffffffffffffffffffffffffffffffffffff021916905590555b505050565b6003819080600181540180825580915050600190039060005260206000200160009091909190916101000a81548173ffffffffffffffffffffffffffffffffffffffff021916908373ffffffffffffffffffffffffffffffffffffffff16021790555060018060008373ffffffffffffffffffffffffffffffffffffffff1673ffffffffffffffffffffffffffffffffffffffff16815260200190815260200160002060020160006101000a81548160ff02191690831515021790555050565b600080828401905083811015611310576040517f08c379a000000000000000000000000000000000000000000000000000000000815260040180806020018281038252601b8152602001807f536166654d6174683a206164646974696f6e206f766572666c6f77000000000081525060200191505060405180910390fd5b8091505092915050565b600080600091506000905060005b6003805490508110156113b9576003818154811061134257fe5b9060005260206000200160009054906101000a900473ffffffffffffffffffffffffffffffffffffffff1673ffffffffffffffffffffffffffffffffffffffff168473ffffffffffffffffffffffffffffffffffffffff1614156113ac57600192508091506113b9565b8080600101915050611328565b5091509156fe6d757374207665737420746f6b656e7320756e74696c20736f6d652074696d6520696e2074686520667574757265766573742072656d6f76616c2064617465206e6565647320746f2062652061667465722064617465207365747472616e73666572207665737420616d6f756e7420696e746f20636f6e7472616374a2646970667358221220c4850df2613dca6e8b4b571eed7a4d46bb20a4f1d88b126f52d142622619e52664736f6c63430007060033",
  "immutableReferences": {},
  "source": "// SPDX-License-Identifier: MIT\r\npragma solidity ^0.7.0;\r\n\r\nimport \"@openzeppelin/contracts/math/SafeMath.sol\";\r\nimport \"@openzeppelin/contracts/utils/ReentrancyGuard.sol\";\r\nimport \"./IGenericERC20.sol\";\r\n\r\n// Contract to lock coins for a set period of time\r\ncontract GenericERC20Vesting is ReentrancyGuard {\r\n    using SafeMath for uint256;\r\n\r\n    // Map stakeholder to stake amount\r\n    mapping(address => UserInfo) public userInfo;\r\n    address public GE20;\r\n\r\n    // Hold a list of all vesters\r\n    address[] private _vestHolders;\r\n    uint256 private _totalVested;\r\n\r\n    constructor(address genericERC20Address) {\r\n        GE20 = genericERC20Address;\r\n    }\r\n\r\n    struct UserInfo {\r\n        uint256 amountVested;\r\n        uint256 dateVestEnds;\r\n        bool exists;\r\n    }\r\n\r\n    function getTotalVest() external view returns (uint256) {\r\n        return _totalVested;\r\n    }\r\n\r\n    function getVesters() external view returns(uint256, address[] memory, uint256[] memory) {\r\n        address[] memory wallets = new address[](_vestHolders.length);\r\n        uint256[] memory allVested = new uint256[](_vestHolders.length);\r\n        for (uint256 i = 0; i < _vestHolders.length; i++) {\r\n            wallets[i] = _vestHolders[i];\r\n            allVested[i] = userInfo[_vestHolders[i]].amountVested;\r\n        }\r\n        return (_totalVested, wallets, allVested);\r\n    }\r\n\r\n    function despositVest(uint256 vestAmount, uint256 expirationDate) external nonReentrant returns (uint256, uint256) {\r\n        require(IGenericERC20(GE20).balanceOf(msg.sender) > 0, 'cannot vest without tokens');\r\n        require(IGenericERC20(GE20).balanceOf(msg.sender) > vestAmount, 'cannot vest more than owned');\r\n        require(expirationDate > block.timestamp, 'must vest tokens until some time in the future');\r\n        require(IGenericERC20(GE20).transferFrom(address(msg.sender), address(this), vestAmount), 'transfer vest amount into contract');\r\n\r\n        UserInfo storage user = userInfo[msg.sender];\r\n        // Make sure the user doesn't try to vest a second time for an earlier date\r\n        if (user.dateVestEnds < expirationDate) {\r\n            user.dateVestEnds = expirationDate;\r\n        }\r\n\r\n        if(!user.exists && user.amountVested == 0) {\r\n            _addVestHolder(msg.sender);  \r\n        }\r\n\r\n        user.amountVested = user.amountVested.add(vestAmount);\r\n        _totalVested = IGenericERC20(GE20).balanceOf(address(this));\r\n\r\n        emit Deposit(msg.sender, vestAmount);\r\n\r\n        return (user.amountVested, _totalVested);\r\n    }\r\n\r\n    function removeVest(uint256 amount) external nonReentrant returns (uint256, uint256) {\r\n        require(amount > 0, 'cannot unvest negative amounts');\r\n        UserInfo storage user = userInfo[msg.sender];\r\n        require(user.dateVestEnds < block.timestamp, 'vest removal date needs to be after date set');\r\n        require(amount <= user.amountVested, 'cannot unvest more than vested');\r\n        user.amountVested = user.amountVested.sub(amount);\r\n        require(IGenericERC20(GE20).transfer(msg.sender, amount), 'transfer token out of contract');\r\n        if(user.exists && user.amountVested == 0) {\r\n            _removeVester(msg.sender);\r\n        }\r\n        _totalVested = IGenericERC20(GE20).balanceOf(address(this));\r\n\r\n        emit Withdraw(msg.sender, amount);\r\n\r\n        return (user.amountVested, _totalVested);\r\n    }\r\n\r\n    // Add a vester\r\n    function _addVestHolder(address vestholderAddress) private {\r\n        _vestHolders.push(vestholderAddress);\r\n        userInfo[vestholderAddress].exists = true;\r\n    }\r\n\r\n    // Remove a vester\r\n    function _removeVester(address vestholderAddress) private {\r\n        (bool isVester, uint256 index) = _isVestHolder(vestholderAddress);\r\n        if (isVester) {\r\n            delete(userInfo[vestholderAddress]);\r\n            _vestHolders[index] = _vestHolders[_vestHolders.length - 1];\r\n            _vestHolders.pop();\r\n        }\r\n    }\r\n\r\n    function _isVestHolder(address vestholderAddress) private view returns (bool exists, uint256 index) {\r\n        exists = false;\r\n        index = 0;\r\n        for (uint256 i = 0; i < _vestHolders.length; i++) {\r\n            if (vestholderAddress == _vestHolders[i]) {\r\n                exists = true;\r\n                index = i;\r\n                break;\r\n            }\r\n        }\r\n    }\r\n\r\n    event Deposit(address indexed user, uint256 amount);\r\n    event Withdraw(address indexed user, uint256 amount);\r\n}",
  "sourcePath": "H:\\erc-20-token\\erc-20-vesting\\contracts\\GenericERC20Vesting.sol",
  "compiler": {
    "name": "solc",
    "version": "0.7.6+commit.7338295f.Emscripten.clang"
  },
  "schemaVersion": "3.4.6",
  "updatedAt": "2022-09-20T15:45:59.494Z",
  "networkType": "ethereum",
  "devdoc": {
    "kind": "dev",
    "methods": {},
    "version": 1
  },
  "userdoc": {
    "kind": "user",
    "methods": {},
    "version": 1
  }
}